:100000000C9430000C944D000C944D000C944D0059
:100010000C944D000C944D000C944D000C944D002C
:100020000C944D000C94F1000C944D000C94BD0008
:100030000C944D000C944D000C944D000C944D000C
:100040000C944D000C944D000C944D000C944D00FC
:100050000C944D006364696E6F70737578585B0023
:1000600011241FBECFE5D8E0DEBFCDBF10E0A0E673
:10007000B0E0E4EDF9E002C005900D92A436B107BE
:10008000D9F720E0A4E6B0E001C01D92A836B2077F
:10009000E1F70E946E000C94E8040C94000085E0E7
:1000A00083BF89B7816089BF12BE089585E08EBD88
:1000B0001DBC1CBC89B7846089BF089592B384E0DD
:1000C000892782BB0895909367008093660082B36E
:1000D000886082BB8EB585608EBD0895CF93DF9317
:1000E000CDB7DEB766970FB6F894DEBF0FBECDBFB3
:1000F00081B38C6081BB0E944F000E94560080E853
:1001000095E20E941301789482B38D7F82BB8E01A9
:100110000F5F1F4FC8010E943A01CE0145969F9381
:100120008F9380E690E09F938F931F930F930E948D
:100130007D010F900F900F900F900F900F900197EF
:1001400031F72D893E892333310584F4C901880FA5
:10015000991F220F331F220F331F220F331F820FCD
:10016000931F0E9463000E945E00D1CF82B38D7FF7
:1001700082BB82B38B7F82BBCACF1F920F920FB616
:100180000F9211242F933F934F935F936F937F931D
:100190008F939F93AF93BF93EF93FF9380916400EE
:1001A00090916500019690936500809364008A3F6A
:1001B000910530F00E945E0010926500109264007C
:1001C000FF91EF91BF91AF919F918F917F916F912F
:1001D0005F914F913F912F910F900FBE0F901F9005
:1001E00018951F920F920FB60F9211248F939F9321
:1001F0008091660090916700892B51F08091660094
:10020000909167000197909367008093660004C007
:1002100082B3877F82BB1EBC9F918F910F900FBED0
:100220000F901F9018959C0182E08BB988E18AB9E4
:1002300086E880BDC901A0E0B0E0880F991FAA1F21
:10024000BB1F880F991FAA1FBB1F9C01AD01220F66
:10025000331F441F551F60E072E18AE790E00E945F
:100260005B012150310930BD29B908955F9BFECF54
:100270008CB10895EF92FF920F931F93CF938C014F
:100280000E943601F8018083C0E008C0CF5F78018A
:10029000EC0EF11C0E943601F7018083F801EC0F8F
:1002A000F11D8081833291F71082CF911F910F91C0
:1002B000FF90EF900895A1E21A2EAA1BBB1BFD012F
:1002C0000DC0AA1FBB1FEE1FFF1FA217B307E40735
:1002D000F50720F0A21BB30BE40BF50B661F771F8D
:1002E000881F991F1A9469F760957095809590956D
:1002F0009B01AC01BD01CF010895AEE0B0E0E3E8A1
:10030000F1E00C94C10485E08C838B899C899A83ED
:100310008983AE01495E5F4F6D897E89CE0101966A
:100320000E9432032E96E2E00C94DD0420FD09C009
:10033000FC0123FD05C022FF02C073836283518349
:100340004083089544FD17C046FD17C0AB01BC01B2
:10035000DA01FB01AA0FBB1FEE1FFF1F1094D1F79C
:100360004A0F5B1F6E1F7F1FCB01BA01660F771FFD
:10037000881F991F09C033E001C034E0660F771F62
:10038000881F991F3150D1F7620F711D811D911D7A
:1003900008950F931F93CF93DF938C01C8010E94A0
:1003A0005704EC0197FD08C00E944304892BB1F764
:1003B000B801CE010E949504CE01DF91CF911F912B
:1003C0000F9108958F929F92AF92BF92EF92FF92FA
:1003D0000F931F93CF93DF938C01D62F7A01B22E08
:1003E0000E9457049C0133272B32310531F02D3206
:1003F000310561F48B2D8068B82ED15011F480E066
:1004000068C0C8010E94570497FDF9CFCB2DCD7F5E
:100410002B2D207309F58033F9F4AA24AA94AD0E8C
:1004200009F443C0C8010E94570497FD3EC09C01D7
:100430002F7D33272835310549F4C264D250A9F104
:10044000C8010E94570497FF07C02FC0B6FE02C024
:10045000C26001C0C261DA2D812C912C540120EDC3
:10046000280F283080F0C4FF04C0B8010E94950412
:1004700019C02A3040F0C6FFF8CF2F7D3FEE320F73
:10048000363098F727504C2FC501B4010E94A201C5
:100490004B015C01C260D15059F0C8010E94570461
:1004A00097FFDDCFC1FD04C0AACF812C912C540150
:1004B000C7FF08C0B094A09490948094811C911CB4
:1004C000A11CB11C2C2FB501A401C7010E949601EB
:1004D00081E0DF91CF911F910F91FF90EF90BF903E
:1004E000AF909F908F900895A0E2B0E0EAE7F2E02D
:1004F0000C94B4045C01962E7A01F9018E010F5F11
:100500001F4F680180E2D8011D928A95E9F7D50155
:1005100013968C9080E090E0612C712C30E061E0CB
:1005200070E083FC259183FE21918F01522E2111D1
:1005300003C080E090E092C02E3511F4009751F195
:10054000432F50E0481759073CF42D3559F12D320F
:1005500019F4772009F103C0772009F46AC0452D0A
:10056000469546954695D601A40FB11D452D477079
:100570008B0102C0000F111F4A95E2F7A8015C91A0
:10058000452B4C93651459F0561410F45394E7CF4F
:100590005A94E5CF31E004C07724739401C0712CE4
:1005A0000196BFCF772019F08E8180628E83311142
:1005B00003C08824839417C0F6019E012F5D3F4F2E
:1005C0008081809581932E173F07D1F7F2CFE114F8
:1005D000F10429F0D7018C93F70131967F019A94A9
:1005E000812C9920F9F0C5010E94570497FD18C08D
:1005F000FC01FF2723E0F595E7952A95E1F7EC0D3F
:10060000FD1D208130E0AC014770552702C03595B3
:1006100027954A95E2F720FDDACFB5010E949504AF
:10062000811087CFE114F10411F0D7011C92C801A9
:1006300015C0422F469546954695D601A40FB11D8B
:10064000422F47708B0102C0000F111F4A95E2F73D
:10065000A8015C91452B4C93622EA2CFA096EFE0AF
:100660000C94D004A0E0B0E0E8E3F3E00C94B40410
:100670006C01EB015A01FC0117821682512CF60124
:10068000E380FE01E3FC8591E3FE8191182FEF01E9
:10069000882309F4EEC090E00E944304892B21F0E6
:1006A000C6010E94C901EBCF153241F4FE01E3FC03
:1006B0001591E3FE1191EF01153281F4C6010E94FC
:1006C000570497FDD4C0412F50E09C0133272417D5
:1006D0003507A9F2B6010E949504CBC01A3239F44D
:1006E000E3FC1591E3FE1191EF0101E001C000E090
:1006F000F12C20ED210F2A3080F402606F2D70E084
:1007000080E090E040E20E94A201F62EFE01E3FCB0
:100710001591E3FE1191EF01ECCF01FF03C0F11041
:1007200003C0A7C0FF24FA94183619F01C3651F004
:1007300010C0FE01E3FC1591E3FE1191EF011836A4
:1007400041F408600460FE01E3FC1591E3FE1191A1
:10075000EF01112309F48DC0612F70E084E590E072
:100760000E944C04892B09F484C000FD07C0F501E8
:1007700080809180C50102965C0102C0812C912C81
:100780001E3651F4F6014681578160E070E0202F5B
:10079000C4010E94960173CF1336A9F401FD02C073
:1007A000FF24F394C6010E94570497FD60C0811492
:1007B000910429F0F4018083C40101964C01FA945C
:1007C000F110F0CF50C01B3559F49E01A4016F2DDC
:1007D000C6010E947402EC01892B09F044C03EC09E
:1007E000C6010E94C90197FD42C01F3661F128F47D
:1007F000143639F1193651F128C0133771F0153715
:1008000001F123C08114910429F0F4016082C40134
:1008100001964C01FA94FF2071F0C6010E94570422
:100820003C0197FD08C00E944304892B59F3B6018F
:10083000C3010E94950481149104A9F0F40110826F
:1008400012C0006203C0006101C00064202FA40137
:100850006F2DC6010E94E201811105C0F60183815E
:10086000807329F406C000FD0ACF539408CF5520A9
:1008700019F0852D90E002C08FEF9FEFCDB7DEB766
:10088000EFE00C94D00491110C94AE04803219F076
:1008900089508550C8F70895FC010590061621F08F
:1008A0000020D9F7C00108953197CF010895CF9363
:1008B000DF93EC012B8120FF33C026FF0AC02F7B82
:1008C0002B838E819F8101969F838E838A8190E006
:1008D00029C022FF0FC0E881F9818081082E000C19
:1008E000990B009719F420622B831AC03196F98373
:1008F000E8830EC0EA85FB85099597FF09C02B8127
:10090000019611F080E201C080E1822B8B8308C048
:100910002E813F812F5F3F4F3F832E83992702C057
:100920008FEF9FEFDF91CF910895FB01238120FF8F
:1009300012C026FD10C08F3F3FEF930761F0828306
:100940002F7D20642383268137812150310937830D
:100950002683992708958FEF9FEF08959927882779
:1009600008952F923F924F925F926F927F928F9253
:100970009F92AF92BF92CF92DF92EF92FF920F932E
:100980001F93CF93DF93CDB7DEB7CA1BDB0B0FB638
:10099000F894DEBF0FBECDBF09942A8839884888F5
:1009A0005F846E847D848C849B84AA84B984C8848B
:1009B000DF80EE80FD800C811B81AA81B981CE0F82
:1009C000D11D0FB6F894DEBF0FBECDBFED01089567
:0409D000F894FFCFC9
:0409D4002564000096
:00000001FF
