S0120000696E6476696475616C312E7372656321
S11300000C942A000C9447000C9447000C9447006D
S11300100C9447000C9447000C9447000C94470040
S11300200C9447000C9447000C9447000C94470030
S11300300C9447000C9447000C9447000C94470020
S11300400C9447000C9447000C9447000C94470010
S11300500C94470011241FBECFE5D8E0DEBFCDBF0E
S113006010E0A0E6B0E0E0EBFCE002C005900D92E9
S1130070A037B107D9F720E0A0E7B0E001C01D9296
S1130080A437B207E1F70E9419010C9456060C94A8
S1130090000088B38F7B88BB2FEF80E792E021506C
S11300A080409040E1F700C0000088B3806488BBC2
S11300B0089598B3906198BB8BBB88B3806188BB6B
S11300C088B38F7D88BB0E94490008958AB31ABA09
S11300D088B3806288BB88B38F7E88BB0E94490046
S11300E08FEF8ABB88B38F7D88BB0895CF93C82FC9
S11300F00E946600CBBB88B38F7C88BB0E944900FA
S1130100CF91089581E00E94760008952FEF89EF42
S113011090E0215080409040E1F700C0000087B398
S1130120806787BB88B38F7888BB8FEF8ABB8FE5E6
S11301309AEE0197F1F700C000000E94820088E364
S11301400E94760086E00E94760080E80E94760095
S11301508FE00E9476000895CF93DF93C82FD62FA7
S1130160811106C0603120F480E8860F0E94760079
S1130170C13031F4D03120F480EC8D0F0E94760030
S1130180DF91CF9108950F931F93CF93DF938C0149
S1130190C0E0D0E018C021960F5F1F4F0E945900A5
S11301A0C031D10529F460E081E00E94AC000BC0AD
S11301B0C032D10544F00E94820060E080E00E94D9
S11301C0AC00C0E0D0E0F80180818111E4CFDF9180
S11301D0CF911F910F9108950F931F93CF93DF93A6
S11301E0CDB7DEB727970FB6F894DEBF0FBECDBFED
S11301F09F938F9380E690E09F938F938E010F5F80
S11302001F4F1F930F930E946C03C8010E94C300E9
S11302100F900F900F900F900F900F9027960FB69E
S1130220F894DEBF0FBECDBFDF91CF911F910F9128
S11302300895CF93DF93CDB7DEB764970FB6F894E4
S1130240DEBF0FBECDBF80E895E20E9480010E9410
S113025086000E94BD010E94C1010E94CC018F3F13
S11302602FEF9207C1F3BC0180E090E00E944F029F
S113027026E933E44BE05DE30E94DD0220E030E058
S113028040E05FE30E94DD020E9419027093730054
S11302906093720060E080E00E94AC008091720084
S11302A0909173000E94EC00809173008F93809171
S11302B072008F9380E690E09F938F938E010F5F7F
S11302C01F4F1F930F930E946C03C8010E94A70144
S11302D080917200909173009093710080937000EC
S11302E08FEF96E721E0815090402040E1F700C075
S11302F000000F900F900F900F900F900F90ABCFC6
S11303009C0182E08BB988E18AB986E880BDC90185
S1130310A0E0B0E0880F991FAA1FBB1F880F991F88
S1130320AA1FBB1F9C01AD01220F331F441F551F81
S113033060E072E18AE790E00E944A0321503109AB
S113034030BD29B908955D9BFECF8CB908950F93F4
S11303501F93CF938C01C0E003C00E94A301CF5F21
S1130360F801EC0FF11D80818111F7CF83E20E9427
S1130370A301CF911F910F91089584B3816084BB31
S1130380089585B3816085BB85E38A95F1F7000004
S113039085B38E7F85BB089580E090E0DC0105C0C5
S11303A099990AC00196A11DB11D803C27E29207CC
S11303B029E0A207B105A0F3803C9742A940B1050A
S11303C079F11FBC82E08EBD1DBC1CBC80E090E0B6
S11303D0DC010AC0999B0FC02CB53DB521363A4EBD
S11303E050F40196A11DB11D803C27E2920729E03B
S11303F0A207B10578F3803C9742A940B10599F072
S11304008CB59DB5A0E0B0E01EBC81362AEE920703
S1130410A105B10558F4B695A795979587950895C4
S11304208FEF9FEF08958EEF9FEF08958EEF9FEF6C
S113043008950E9420026894B1110C94D702089583
S11304400E94BC0288F09F5798F0B92F9927B751A2
S1130450B0F0E1F0660F771F881F991F1AF0BA9564
S1130460C9F714C0B13091F00E94D602B1E00895EA
S11304700C94D602672F782F8827B85F39F0B93FDC
S1130480CCF3869577956795B395D9F73EF4909517
S11304908095709561957F4F8F4F9F4F0895E89495
S11304A009C097FB3EF490958095709561957F4FB8
S11304B08F4F9F4F9923A9F0F92F96E9BB27939566
S11304C0F695879577956795B795F111F8CFFAF476
S11304D0BB0F11F460FF1BC06F5F7F4F8F4F9F4FA7
S11304E016C0882311F096E911C0772321F09EE805
S11304F0872F762F05C0662371F096E8862F70E06B
S113050060E02AF09A95660F771F881FDAF7880F44
S11305109695879597F9089597F99F6780E870E015
S113052060E008959FEF80EC089500240A94161665
S1130530170618060906089500240A9412161306CD
S1130540140605060895092E0394000C11F488235B
S113055052F0BB0F40F4BF2B11F460FF04C06F5F77
S11305607F4F8F4F9F4F089557FD9058440F551F4D
S113057059F05F3F71F04795880F97FB991F61F021
S11305809F3F79F087950895121613061406551F98
S1130590F2CF4695F1DF08C0161617061806991F04
S11305A0F1CF86957105610508940895E894BB27F9
S11305B066277727CB0197F908950E94F0020C94DF
S11305C0A3020E94950238F00E949C0220F0952319
S11305D011F00C948C020C94920211240C94D70206
S11305E00E94B40270F3959FC1F3950F50E0551F1C
S11305F0629FF001729FBB27F00DB11D639FAA2774
S1130600F00DB11DAA1F649F6627B00DA11D661FC2
S1130610829F2227B00DA11D621F739FB00DA11DE3
S1130620621F839FA00D611D221F749F3327A00D9D
S1130630611D231F849F600D211D822F762F6A2F39
S113064011249F5750409AF0F1F088234AF0EE0F9E
S1130650FF1FBB1F661F771F881F91505040A9F7CB
S11306609E3F510580F00C948C020C94D7025F3F9E
S1130670E4F3983ED4F3869577956795B795F79507
S1130680E7959F5FC1F7FE2B880F911D969587957F
S113069097F90895A1E21A2EAA1BBB1BFD010DC0F8
S11306A0AA1FBB1FEE1FFF1FA217B307E407F5071E
S11306B020F0A21BB30BE40BF50B661F771F881FFA
S11306C0991F1A9469F760957095809590959B0190
S11306D0AC01BD01CF010895AEE0B0E0E2E7F3E084
S11306E00C942D060D891E8986E08C831A83098358
S11306F08FEF9FE79E838D83AE01475E5F4F6F89C7
S1130700788DCE0101960E948E03EF81F885E00F6B
S1130710F11F10822E96E4E00C944906ABE0B0E0A1
S1130720E4E9F3E00C941F066C017B018A01FC01EF
S113073017821682838181FFCCC1CE0101963C01D0
S1130740F6019381F70193FD859193FF81917F01D8
S1130750882309F4BAC1853239F493FD859193FF56
S113076081917F01853229F4B60190E00E948505CC
S1130770E7CF912C212C312CFFE1F315D8F08B32EB
S113078079F038F4803279F08332A1F4232D20619A
S11307901DC08D3261F0803369F4232D216016C0B1
S11307A0832D8260382EE32DE4603E2E2AC0F32D83
S11307B0F8601DC037FC2DC020ED280F2A3040F012
S11307C08E32B9F436FC81C1232D2064322E19C037
S11307D036FE06C08AE0989E200D1124922E11C088
S11307E0EAE02E9E200D1124222EF32DF0623F2EDE
S11307F008C08C3621F4832D8068382E02C08836D8
S113080041F4F70193FD859193FF81917F0181115B
S1130810B3CF982F9F7D9554933028F40C5F1F4FCE
S11308209FE399830DC0833631F0833771F08335AC
S113083009F059C021C0F801808189830E5F1F4FE0
S113084088248394912C530113C02801F2E04F0EA5
S1130850511CF801A080B18036FE03C0692D70E000
S113086002C06FEF7FEFC5010E947A054C0182013F
S1130870F32DFF773F2E16C0280122E0420E511CB3
S1130880F801A080B18036FE03C0692D70E002C07B
S11308906FEF7FEFC5010E946F054C01F32DF068E7
S11308A03F2E820133FC1BC0822D90E088169906EE
S11308B0B0F4B60180E290E00E9485052A94F4CF5A
S11308C0F50137FC859137FE81915F01B60190E017
S11308D00E94850521102A9421E0821A910881142E
S11308E0910471F7E8C0843611F0893641F5F801B6
S11308F037FE07C060817181828193810C5F1F4F35
S113090008C060817181072E000C880B990B0E5F63
S11309101F4FF32DFF763F2E97FF09C090958095CA
S1130920709561957F4F8F4F9F4FF0683F2E2AE05F
S113093030E0A3010E94C105882E861845C0853782
S113094031F4232D2F7EB22E2AE030E025C0932DE2
S1130950997FB92E8F36C1F018F4883579F0B5C077
S1130960803719F0883721F0B0C0E92FE061BE2E3E
S1130970B4FE0DC0FB2DF460BF2E09C034FE0AC0C6
S1130980292F2660B22E06C028E030E005C020E101
S113099030E002C020E132E0F801B7FE07C0608118
S11309A07181828193810C5F1F4F06C060817181C8
S11309B080E090E00E5F1F4FA3010E94C105882EC6
S11309C08618FB2DFF773F2E36FE0DC0232D2E7F7C
S11309D0A22E891458F434FE0BC032FC09C0832DB6
S11309E08E7EA82E05C0B82CA32C03C0B82C01C041
S11309F0B92CA4FE0FC0FE01E80DF11D80818033E7
S1130A0021F49A2D997EA92E09C0A2FE06C0B394A2
S1130A10B39404C08A2D867809F0B394A3FC11C062
S1130A20A0FE06C0B21488F4280C922C9B180EC0A9
S1130A30B21460F4B60180E290E00E948505B3949C
S1130A40F7CFB21418F42B1802C0982C212CA4FE52
S1130A5010C0B60180E390E00E948505A2FE17C095
S1130A60A1FC03C088E790E002C088E590E0B601ED
S1130A700CC08A2D867859F0A1FE02C08BE201C019
S1130A8080E2A7FC8DE2B60190E00E9485058914FE
S1130A9038F4B60180E390E00E9485059A94F7CF7C
S1130AA08A94F301E80DF11D8081B60190E00E9463
S1130AB085058110F5CF222009F442CEB60180E2EB
S1130AC090E00E9485052A94F6CFF60186819781ED
S1130AD002C08FEF9FEF2B96E2E10C943B06FC01E2
S1130AE00590615070400110D8F7809590958E0F55
S1130AF09F1F0895FC016150704001900110D8F7C8
S1130B00809590958E0F9F1F08950F931F93CF93F9
S1130B10DF93FB01238121FD03C08FEF9FEF2CC0E6
S1130B2022FF16C04681578124813581421753071D
S1130B3044F4A081B1819D012F5F3F4F3183208315
S1130B408C93268137812F5F3F4F3783268314C0D0
S1130B508B01EC01FB010084F185E02D0995892BC3
S1130B60E1F6D80116968D919C91179701961796E8
S1130B709C938E931697CE01DF91CF911F910F9185
S1130B800895FA01AA27283051F1203181F1E8941F
S1130B906F936E7F6E5F7F4F8F4F9F4FAF4FB1E06C
S1130BA03ED0B4E03CD0670F781F891F9A1FA11D67
S1130BB0680F791F8A1F911DA11D6A0F711D811D68
S1130BC0911DA11D20D009F468943F912AE0269F2D
S1130BD011243019305D3193DEF6CF010895462F8C
S1130BE04770405D4193B3E00FD0C9F7F6CF462F6D
S1130BF04F70405D4A3318F0495D31FD40524193D6
S1130C0002D0A9F7EACFB4E0A69597958795779592
S1130C106795BA95C9F700976105710508959B0119
S1130C20AC010A2E06945795479537952795BA95A2
S1130C30C9F7620F731F841F951FA01D08952F927B
S1130C403F924F925F926F927F928F929F92AF9258
S1130C50BF92CF92DF92EF92FF920F931F93CF93A5
S1130C60DF93CDB7DEB7CA1BDB0B0FB6F894DEBF3C
S1130C700FBECDBF09942A88398848885F846E8462
S1130C807D848C849B84AA84B984C884DF80EE80AC
S1130C90FD800C811B81AA81B981CE0FD11D0FB6B5
S1130CA0F894DEBF0FBECDBFED010895F894FFCFD9
S1130CB02564002D00257325642E2530356400003D
S9030000FC
